{
  "_format": "hh-sol-artifact-1",
  "contractName": "Wallet",
  "sourceName": "contracts/Smart_Contract.sol",
  "abi": [
    {
      "inputs": [
        {
          "internalType": "address",
          "name": "tokenAddress",
          "type": "address"
        }
      ],
      "stateMutability": "nonpayable",
      "type": "constructor"
    },
    {
      "anonymous": false,
      "inputs": [
        {
          "indexed": true,
          "internalType": "address",
          "name": "claimant",
          "type": "address"
        },
        {
          "indexed": false,
          "internalType": "uint256",
          "name": "tokenAmount",
          "type": "uint256"
        }
      ],
      "name": "Claimed",
      "type": "event"
    },
    {
      "anonymous": false,
      "inputs": [
        {
          "indexed": true,
          "internalType": "address",
          "name": "donor",
          "type": "address"
        },
        {
          "indexed": false,
          "internalType": "uint256",
          "name": "amount",
          "type": "uint256"
        }
      ],
      "name": "Donated",
      "type": "event"
    },
    {
      "inputs": [],
      "name": "MINIMUM_DONATION",
      "outputs": [
        {
          "internalType": "uint256",
          "name": "",
          "type": "uint256"
        }
      ],
      "stateMutability": "view",
      "type": "function"
    },
    {
      "inputs": [
        {
          "internalType": "address",
          "name": "",
          "type": "address"
        }
      ],
      "name": "balances",
      "outputs": [
        {
          "internalType": "uint256",
          "name": "",
          "type": "uint256"
        }
      ],
      "stateMutability": "view",
      "type": "function"
    },
    {
      "inputs": [],
      "name": "claimReward",
      "outputs": [],
      "stateMutability": "nonpayable",
      "type": "function"
    },
    {
      "inputs": [],
      "name": "donate",
      "outputs": [],
      "stateMutability": "payable",
      "type": "function"
    },
    {
      "inputs": [],
      "name": "getContractBalance",
      "outputs": [
        {
          "internalType": "uint256",
          "name": "",
          "type": "uint256"
        }
      ],
      "stateMutability": "view",
      "type": "function"
    },
    {
      "inputs": [
        {
          "internalType": "address",
          "name": "user",
          "type": "address"
        }
      ],
      "name": "getUserBalance",
      "outputs": [
        {
          "internalType": "uint256",
          "name": "",
          "type": "uint256"
        }
      ],
      "stateMutability": "view",
      "type": "function"
    },
    {
      "inputs": [
        {
          "internalType": "address",
          "name": "",
          "type": "address"
        }
      ],
      "name": "hasClaimed",
      "outputs": [
        {
          "internalType": "bool",
          "name": "",
          "type": "bool"
        }
      ],
      "stateMutability": "view",
      "type": "function"
    },
    {
      "inputs": [],
      "name": "owner",
      "outputs": [
        {
          "internalType": "address",
          "name": "",
          "type": "address"
        }
      ],
      "stateMutability": "view",
      "type": "function"
    },
    {
      "inputs": [],
      "name": "rewardToken",
      "outputs": [
        {
          "internalType": "contract IERC20",
          "name": "",
          "type": "address"
        }
      ],
      "stateMutability": "view",
      "type": "function"
    },
    {
      "inputs": [],
      "name": "totalDonations",
      "outputs": [
        {
          "internalType": "uint256",
          "name": "",
          "type": "uint256"
        }
      ],
      "stateMutability": "view",
      "type": "function"
    },
    {
      "inputs": [],
      "name": "withdraw",
      "outputs": [],
      "stateMutability": "nonpayable",
      "type": "function"
    }
  ],
  "bytecode": "0x60806040523480156200001157600080fd5b50604051620010eb380380620010eb833981810160405281019062000037919062000129565b806000806101000a81548173ffffffffffffffffffffffffffffffffffffffff021916908373ffffffffffffffffffffffffffffffffffffffff16021790555033600160006101000a81548173ffffffffffffffffffffffffffffffffffffffff021916908373ffffffffffffffffffffffffffffffffffffffff160217905550506200015b565b600080fd5b600073ffffffffffffffffffffffffffffffffffffffff82169050919050565b6000620000f182620000c4565b9050919050565b6200010381620000e4565b81146200010f57600080fd5b50565b6000815190506200012381620000f8565b92915050565b600060208284031215620001425762000141620000bf565b5b6000620001528482850162000112565b91505092915050565b610f80806200016b6000396000f3fe60806040526004361061009c5760003560e01c806373b2e80e1161006457806373b2e80e146101885780638da5cb5b146101c5578063b88a802f146101f0578063de2ed89314610207578063ed88c68e14610232578063f7c618c11461023c5761009c565b806327e235e3146100a15780633ccfd60b146100de578063426cd7a7146100f557806347734892146101205780636f9fb98a1461015d575b600080fd5b3480156100ad57600080fd5b506100c860048036038101906100c39190610980565b610267565b6040516100d591906109c6565b60405180910390f35b3480156100ea57600080fd5b506100f361027f565b005b34801561010157600080fd5b5061010a6103c3565b60405161011791906109c6565b60405180910390f35b34801561012c57600080fd5b5061014760048036038101906101429190610980565b6103ce565b60405161015491906109c6565b60405180910390f35b34801561016957600080fd5b50610172610417565b60405161017f91906109c6565b60405180910390f35b34801561019457600080fd5b506101af60048036038101906101aa9190610980565b61041f565b6040516101bc91906109fc565b60405180910390f35b3480156101d157600080fd5b506101da61043f565b6040516101e79190610a26565b60405180910390f35b3480156101fc57600080fd5b50610205610465565b005b34801561021357600080fd5b5061021c6107f1565b60405161022991906109c6565b60405180910390f35b61023a6107f7565b005b34801561024857600080fd5b506102516108f9565b60405161025e9190610aa0565b60405180910390f35b60036020528060005260406000206000915090505481565b600160009054906101000a900473ffffffffffffffffffffffffffffffffffffffff1673ffffffffffffffffffffffffffffffffffffffff163373ffffffffffffffffffffffffffffffffffffffff161461030f576040517f08c379a000000000000000000000000000000000000000000000000000000000815260040161030690610b18565b60405180910390fd5b600047905060008111610357576040517f08c379a000000000000000000000000000000000000000000000000000000000815260040161034e90610b84565b60405180910390fd5b600160009054906101000a900473ffffffffffffffffffffffffffffffffffffffff1673ffffffffffffffffffffffffffffffffffffffff166108fc829081150290604051600060405180830381858888f193505050501580156103bf573d6000803e3d6000fd5b5050565b662386f26fc1000081565b6000600360008373ffffffffffffffffffffffffffffffffffffffff1673ffffffffffffffffffffffffffffffffffffffff168152602001908152602001600020549050919050565b600047905090565b60046020528060005260406000206000915054906101000a900460ff1681565b600160009054906101000a900473ffffffffffffffffffffffffffffffffffffffff1681565b662386f26fc10000600360003373ffffffffffffffffffffffffffffffffffffffff1673ffffffffffffffffffffffffffffffffffffffff1681526020019081526020016000205410156104ee576040517f08c379a00000000000000000000000000000000000000000000000000000000081526004016104e590610c16565b60405180910390fd5b600460003373ffffffffffffffffffffffffffffffffffffffff1673ffffffffffffffffffffffffffffffffffffffff16815260200190815260200160002060009054906101000a900460ff161561057b576040517f08c379a000000000000000000000000000000000000000000000000000000000815260040161057290610c82565b60405180910390fd5b6000670de0b6b3a764000090508060008054906101000a900473ffffffffffffffffffffffffffffffffffffffff1673ffffffffffffffffffffffffffffffffffffffff166370a08231306040518263ffffffff1660e01b81526004016105e29190610a26565b602060405180830381865afa1580156105ff573d6000803e3d6000fd5b505050506040513d601f19601f820116820180604052508101906106239190610cce565b1015610664576040517f08c379a000000000000000000000000000000000000000000000000000000000815260040161065b90610d6d565b60405180910390fd5b6001600460003373ffffffffffffffffffffffffffffffffffffffff1673ffffffffffffffffffffffffffffffffffffffff16815260200190815260200160002060006101000a81548160ff02191690831515021790555060008060009054906101000a900473ffffffffffffffffffffffffffffffffffffffff1673ffffffffffffffffffffffffffffffffffffffff1663a9059cbb33846040518363ffffffff1660e01b815260040161071a929190610d8d565b6020604051808303816000875af1158015610739573d6000803e3d6000fd5b505050506040513d601f19601f8201168201806040525081019061075d9190610de2565b90508061079f576040517f08c379a000000000000000000000000000000000000000000000000000000000815260040161079690610e5b565b60405180910390fd5b3373ffffffffffffffffffffffffffffffffffffffff167fd8138f8a3f377c5259ca548e70e4c2de94f129f5a11036a15b69513cba2b426a836040516107e591906109c6565b60405180910390a25050565b60025481565b6000341161083a576040517f08c379a000000000000000000000000000000000000000000000000000000000815260040161083190610ec7565b60405180910390fd5b34600360003373ffffffffffffffffffffffffffffffffffffffff1673ffffffffffffffffffffffffffffffffffffffff16815260200190815260200160002060008282546108899190610f16565b9250508190555034600260008282546108a29190610f16565b925050819055503373ffffffffffffffffffffffffffffffffffffffff167f2a01595cddf097c90216094025db714da3f4e5bd8877b56ba86a24ecead8e543346040516108ef91906109c6565b60405180910390a2565b60008054906101000a900473ffffffffffffffffffffffffffffffffffffffff1681565b600080fd5b600073ffffffffffffffffffffffffffffffffffffffff82169050919050565b600061094d82610922565b9050919050565b61095d81610942565b811461096857600080fd5b50565b60008135905061097a81610954565b92915050565b6000602082840312156109965761099561091d565b5b60006109a48482850161096b565b91505092915050565b6000819050919050565b6109c0816109ad565b82525050565b60006020820190506109db60008301846109b7565b92915050565b60008115159050919050565b6109f6816109e1565b82525050565b6000602082019050610a1160008301846109ed565b92915050565b610a2081610942565b82525050565b6000602082019050610a3b6000830184610a17565b92915050565b6000819050919050565b6000610a66610a61610a5c84610922565b610a41565b610922565b9050919050565b6000610a7882610a4b565b9050919050565b6000610a8a82610a6d565b9050919050565b610a9a81610a7f565b82525050565b6000602082019050610ab56000830184610a91565b92915050565b600082825260208201905092915050565b7f4f6e6c79206f776e65722063616e207769746864726177000000000000000000600082015250565b6000610b02601783610abb565b9150610b0d82610acc565b602082019050919050565b60006020820190508181036000830152610b3181610af5565b9050919050565b7f4e6f20457468657220746f207769746864726177000000000000000000000000600082015250565b6000610b6e601483610abb565b9150610b7982610b38565b602082019050919050565b60006020820190508181036000830152610b9d81610b61565b9050919050565b7f4d75737420646f6e617465206174206c6561737420302e30312045544820746f60008201527f20636c61696d2072657761726400000000000000000000000000000000000000602082015250565b6000610c00602d83610abb565b9150610c0b82610ba4565b604082019050919050565b60006020820190508181036000830152610c2f81610bf3565b9050919050565b7f52657761726420616c726561647920636c61696d656400000000000000000000600082015250565b6000610c6c601683610abb565b9150610c7782610c36565b602082019050919050565b60006020820190508181036000830152610c9b81610c5f565b9050919050565b610cab816109ad565b8114610cb657600080fd5b50565b600081519050610cc881610ca2565b92915050565b600060208284031215610ce457610ce361091d565b5b6000610cf284828501610cb9565b91505092915050565b7f4e6f7420656e6f75676820746f6b656e7320696e2074686520636f6e7472616360008201527f7400000000000000000000000000000000000000000000000000000000000000602082015250565b6000610d57602183610abb565b9150610d6282610cfb565b604082019050919050565b60006020820190508181036000830152610d8681610d4a565b9050919050565b6000604082019050610da26000830185610a17565b610daf60208301846109b7565b9392505050565b610dbf816109e1565b8114610dca57600080fd5b50565b600081519050610ddc81610db6565b92915050565b600060208284031215610df857610df761091d565b5b6000610e0684828501610dcd565b91505092915050565b7f546f6b656e207472616e73666572206661696c65640000000000000000000000600082015250565b6000610e45601583610abb565b9150610e5082610e0f565b602082019050919050565b60006020820190508181036000830152610e7481610e38565b9050919050565b7f596f75206d7573742073656e6420736f6d652045746865720000000000000000600082015250565b6000610eb1601883610abb565b9150610ebc82610e7b565b602082019050919050565b60006020820190508181036000830152610ee081610ea4565b9050919050565b7f4e487b7100000000000000000000000000000000000000000000000000000000600052601160045260246000fd5b6000610f21826109ad565b9150610f2c836109ad565b9250828201905080821115610f4457610f43610ee7565b5b9291505056fea26469706673582212207bb2f5bd11232471ae0269e204be6a9c5f96e1872269ebddf6500179a67ce2ec64736f6c63430008140033",
  "linkReferences": {},
  "deployedLinkReferences": {}
}